{"abi":[{"type":"constructor","inputs":[{"name":"sadSvgImageURI","type":"string","internalType":"string"},{"name":"happySvgImageURI","type":"string","internalType":"string"}],"stateMutability":"nonpayable"},{"type":"function","name":"approve","inputs":[{"name":"to","type":"address","internalType":"address"},{"name":"tokenId","type":"uint256","internalType":"uint256"}],"outputs":[],"stateMutability":"nonpayable"},{"type":"function","name":"balanceOf","inputs":[{"name":"owner","type":"address","internalType":"address"}],"outputs":[{"name":"","type":"uint256","internalType":"uint256"}],"stateMutability":"view"},{"type":"function","name":"flipMood","inputs":[{"name":"tokenId","type":"uint256","internalType":"uint256"}],"outputs":[],"stateMutability":"nonpayable"},{"type":"function","name":"getApproved","inputs":[{"name":"tokenId","type":"uint256","internalType":"uint256"}],"outputs":[{"name":"","type":"address","internalType":"address"}],"stateMutability":"view"},{"type":"function","name":"isApprovedForAll","inputs":[{"name":"owner","type":"address","internalType":"address"},{"name":"operator","type":"address","internalType":"address"}],"outputs":[{"name":"","type":"bool","internalType":"bool"}],"stateMutability":"view"},{"type":"function","name":"mintNft","inputs":[],"outputs":[],"stateMutability":"nonpayable"},{"type":"function","name":"name","inputs":[],"outputs":[{"name":"","type":"string","internalType":"string"}],"stateMutability":"view"},{"type":"function","name":"ownerOf","inputs":[{"name":"tokenId","type":"uint256","internalType":"uint256"}],"outputs":[{"name":"","type":"address","internalType":"address"}],"stateMutability":"view"},{"type":"function","name":"safeTransferFrom","inputs":[{"name":"from","type":"address","internalType":"address"},{"name":"to","type":"address","internalType":"address"},{"name":"tokenId","type":"uint256","internalType":"uint256"}],"outputs":[],"stateMutability":"nonpayable"},{"type":"function","name":"safeTransferFrom","inputs":[{"name":"from","type":"address","internalType":"address"},{"name":"to","type":"address","internalType":"address"},{"name":"tokenId","type":"uint256","internalType":"uint256"},{"name":"data","type":"bytes","internalType":"bytes"}],"outputs":[],"stateMutability":"nonpayable"},{"type":"function","name":"setApprovalForAll","inputs":[{"name":"operator","type":"address","internalType":"address"},{"name":"approved","type":"bool","internalType":"bool"}],"outputs":[],"stateMutability":"nonpayable"},{"type":"function","name":"supportsInterface","inputs":[{"name":"interfaceId","type":"bytes4","internalType":"bytes4"}],"outputs":[{"name":"","type":"bool","internalType":"bool"}],"stateMutability":"view"},{"type":"function","name":"symbol","inputs":[],"outputs":[{"name":"","type":"string","internalType":"string"}],"stateMutability":"view"},{"type":"function","name":"tokenURI","inputs":[{"name":"tokenId","type":"uint256","internalType":"uint256"}],"outputs":[{"name":"","type":"string","internalType":"string"}],"stateMutability":"view"},{"type":"function","name":"transferFrom","inputs":[{"name":"from","type":"address","internalType":"address"},{"name":"to","type":"address","internalType":"address"},{"name":"tokenId","type":"uint256","internalType":"uint256"}],"outputs":[],"stateMutability":"nonpayable"},{"type":"event","name":"Approval","inputs":[{"name":"owner","type":"address","indexed":true,"internalType":"address"},{"name":"approved","type":"address","indexed":true,"internalType":"address"},{"name":"tokenId","type":"uint256","indexed":true,"internalType":"uint256"}],"anonymous":false},{"type":"event","name":"ApprovalForAll","inputs":[{"name":"owner","type":"address","indexed":true,"internalType":"address"},{"name":"operator","type":"address","indexed":true,"internalType":"address"},{"name":"approved","type":"bool","indexed":false,"internalType":"bool"}],"anonymous":false},{"type":"event","name":"Transfer","inputs":[{"name":"from","type":"address","indexed":true,"internalType":"address"},{"name":"to","type":"address","indexed":true,"internalType":"address"},{"name":"tokenId","type":"uint256","indexed":true,"internalType":"uint256"}],"anonymous":false},{"type":"error","name":"ERC721IncorrectOwner","inputs":[{"name":"sender","type":"address","internalType":"address"},{"name":"tokenId","type":"uint256","internalType":"uint256"},{"name":"owner","type":"address","internalType":"address"}]},{"type":"error","name":"ERC721InsufficientApproval","inputs":[{"name":"operator","type":"address","internalType":"address"},{"name":"tokenId","type":"uint256","internalType":"uint256"}]},{"type":"error","name":"ERC721InvalidApprover","inputs":[{"name":"approver","type":"address","internalType":"address"}]},{"type":"error","name":"ERC721InvalidOperator","inputs":[{"name":"operator","type":"address","internalType":"address"}]},{"type":"error","name":"ERC721InvalidOwner","inputs":[{"name":"owner","type":"address","internalType":"address"}]},{"type":"error","name":"ERC721InvalidReceiver","inputs":[{"name":"receiver","type":"address","internalType":"address"}]},{"type":"error","name":"ERC721InvalidSender","inputs":[{"name":"sender","type":"address","internalType":"address"}]},{"type":"error","name":"ERC721NonexistentToken","inputs":[{"name":"tokenId","type":"uint256","internalType":"uint256"}]},{"type":"error","name":"MoodNft_CantFlipMoodIfNotOwner","inputs":[]}],"bytecode":{"object":"0x608060405260006006553480156200001657600080fd5b506040516200169b3803806200169b83398101604081905262000039916200018a565b60405180604001604052806007815260200166135bdbdb93999d60ca1b81525060405180604001604052806002815260200161135960f21b815250816000908162000085919062000285565b50600162000094828262000285565b50506000600655506007620000aa838262000285565b506008620000b9828262000285565b50505062000351565b634e487b7160e01b600052604160045260246000fd5b600082601f830112620000ea57600080fd5b81516001600160401b0380821115620001075762000107620000c2565b604051601f8301601f19908116603f01168101908282118183101715620001325762000132620000c2565b81604052838152602092508660208588010111156200015057600080fd5b600091505b8382101562000174578582018301518183018401529082019062000155565b6000602085830101528094505050505092915050565b600080604083850312156200019e57600080fd5b82516001600160401b0380821115620001b657600080fd5b620001c486838701620000d8565b93506020850151915080821115620001db57600080fd5b50620001ea85828601620000d8565b9150509250929050565b600181811c908216806200020957607f821691505b6020821081036200022a57634e487b7160e01b600052602260045260246000fd5b50919050565b601f82111562000280576000816000526020600020601f850160051c810160208610156200025b5750805b601f850160051c820191505b818110156200027c5782815560010162000267565b5050505b505050565b81516001600160401b03811115620002a157620002a1620000c2565b620002b981620002b28454620001f4565b8462000230565b602080601f831160018114620002f15760008415620002d85750858301515b600019600386901b1c1916600185901b1785556200027c565b600085815260208120601f198616915b82811015620003225788860151825594840194600190910190840162000301565b5085821015620003415787850151600019600388901b60f8161c191681555b5050505050600190811b01905550565b61133a80620003616000396000f3fe608060405234801561001057600080fd5b50600436106100f55760003560e01c806370a0823111610097578063c1a147a011610066578063c1a147a0146101ff578063c2229fea14610212578063c87b56dd1461021a578063e985e9c51461022d57600080fd5b806370a08231146101b057806395d89b41146101d1578063a22cb465146101d9578063b88d4fde146101ec57600080fd5b8063095ea7b3116100d3578063095ea7b31461016257806323b872dd1461017757806342842e0e1461018a5780636352211e1461019d57600080fd5b806301ffc9a7146100fa57806306fdde0314610122578063081812fc14610137575b600080fd5b61010d610108366004610e6a565b610240565b60405190151581526020015b60405180910390f35b61012a610292565b6040516101199190610ede565b61014a610145366004610ef1565b610324565b6040516001600160a01b039091168152602001610119565b610175610170366004610f26565b61034d565b005b610175610185366004610f50565b61035c565b610175610198366004610f50565b6103ec565b61014a6101ab366004610ef1565b61040c565b6101c36101be366004610f8c565b610417565b604051908152602001610119565b61012a61045f565b6101756101e7366004610fa7565b61046e565b6101756101fa366004610ff9565b610479565b61017561020d366004610ef1565b610490565b610175610553565b61012a610228366004610ef1565b61058d565b61010d61023b3660046110d5565b610766565b60006001600160e01b031982166380ac58cd60e01b148061027157506001600160e01b03198216635b5e139f60e01b145b8061028c57506301ffc9a760e01b6001600160e01b03198316145b92915050565b6060600080546102a190611108565b80601f01602080910402602001604051908101604052809291908181526020018280546102cd90611108565b801561031a5780601f106102ef5761010080835404028352916020019161031a565b820191906000526020600020905b8154815290600101906020018083116102fd57829003601f168201915b5050505050905090565b600061032f82610794565b506000828152600460205260409020546001600160a01b031661028c565b6103588282336107cd565b5050565b6001600160a01b03821661038b57604051633250574960e11b8152600060048201526024015b60405180910390fd5b60006103988383336107da565b9050836001600160a01b0316816001600160a01b0316146103e6576040516364283d7b60e01b81526001600160a01b0380861660048301526024820184905282166044820152606401610382565b50505050565b61040783838360405180602001604052806000815250610479565b505050565b600061028c82610794565b60006001600160a01b038216610443576040516322718ad960e21b815260006004820152602401610382565b506001600160a01b031660009081526003602052604090205490565b6060600180546102a190611108565b6103583383836108d3565b61048484848461035c565b6103e684848484610972565b3361049a82610324565b6001600160a01b0316141580156104c25750336104b68261040c565b6001600160a01b031614155b156104e0576040516301b7e5cb60e31b815260040160405180910390fd5b60008181526009602052604081205460ff16600181111561050357610503611142565b0361052d57600160008281526009602052604090205460ff16600181111561040757610407611142565b60008181526009602052604081205460ff16600181111561040757610407611142565b50565b61055f33600654610a9b565b600680546000908152600960205260408120805460ff19169055815491906105868361116e565b9190505550565b6060806000808481526009602052604090205460ff1660018111156105b4576105b4611142565b0361064b57600880546105c690611108565b80601f01602080910402602001604051908101604052809291908181526020018280546105f290611108565b801561063f5780601f106106145761010080835404028352916020019161063f565b820191906000526020600020905b81548152906001019060200180831161062257829003601f168201915b505050505090506106d9565b6007805461065890611108565b80601f016020809104026020016040519081016040528092919081815260200182805461068490611108565b80156106d15780601f106106a6576101008083540402835291602001916106d1565b820191906000526020600020905b8154815290600101906020018083116106b457829003601f168201915b505050505090505b60408051808201909152601d81527f646174613a6170706c69636174696f6e2f6a736f6e3b6261736536342c000000602082015261073e610718610292565b8360405160200161072a929190611187565b604051602081830303815290604052610ab5565b60405160200161074f9291906111f0565b604051602081830303815290604052915050919050565b6001600160a01b03918216600090815260056020908152604080832093909416825291909152205460ff1690565b6000818152600260205260408120546001600160a01b03168061028c57604051637e27328960e01b815260048101849052602401610382565b6104078383836001610c08565b6000828152600260205260408120546001600160a01b039081169083161561080757610807818486610d0e565b6001600160a01b0381161561084557610824600085600080610c08565b6001600160a01b038116600090815260036020526040902080546000190190555b6001600160a01b03851615610874576001600160a01b0385166000908152600360205260409020805460010190555b60008481526002602052604080822080546001600160a01b0319166001600160a01b0389811691821790925591518793918516917fddf252ad1be2c89b69c2b068fc378daa952ba7f163c4a11628f55a4df523b3ef91a4949350505050565b6001600160a01b03821661090557604051630b61174360e31b81526001600160a01b0383166004820152602401610382565b6001600160a01b03838116600081815260056020908152604080832094871680845294825291829020805460ff191686151590811790915591519182527f17307eab39ab6107e8899845ad3d59bd9653f200f220920489ca2b5937696c31910160405180910390a3505050565b6001600160a01b0383163b156103e657604051630a85bd0160e11b81526001600160a01b0384169063150b7a02906109b490339088908790879060040161121e565b6020604051808303816000875af19250505080156109ef575060408051601f3d908101601f191682019092526109ec9181019061125b565b60015b610a58573d808015610a1d576040519150601f19603f3d011682016040523d82523d6000602084013e610a22565b606091505b508051600003610a5057604051633250574960e11b81526001600160a01b0385166004820152602401610382565b805181602001fd5b6001600160e01b03198116630a85bd0160e11b14610a9457604051633250574960e11b81526001600160a01b0385166004820152602401610382565b5050505050565b610358828260405180602001604052806000815250610d72565b60608151600003610ad457505060408051602081019091526000815290565b60006040518060600160405280604081526020016112c56040913990506000600384516002610b039190611278565b610b0d919061128b565b610b189060046112ad565b67ffffffffffffffff811115610b3057610b30610fe3565b6040519080825280601f01601f191660200182016040528015610b5a576020820181803683370190505b509050600182016020820185865187015b80821015610bc6576003820191508151603f8160121c168501518453600184019350603f81600c1c168501518453600184019350603f8160061c168501518453600184019350603f8116850151845350600183019250610b6b565b5050600386510660018114610be25760028114610bf557610bfd565b603d6001830353603d6002830353610bfd565b603d60018303535b509195945050505050565b8080610c1c57506001600160a01b03821615155b15610cde576000610c2c84610794565b90506001600160a01b03831615801590610c585750826001600160a01b0316816001600160a01b031614155b8015610c6b5750610c698184610766565b155b15610c945760405163a9fbf51f60e01b81526001600160a01b0384166004820152602401610382565b8115610cdc5783856001600160a01b0316826001600160a01b03167f8c5be1e5ebec7d5bd14f71427d1e84f3dd0314c0f7b2291e5b200ac8c7c3b92560405160405180910390a45b505b5050600090815260046020526040902080546001600160a01b0319166001600160a01b0392909216919091179055565b610d19838383610d89565b610407576001600160a01b038316610d4757604051637e27328960e01b815260048101829052602401610382565b60405163177e802f60e01b81526001600160a01b038316600482015260248101829052604401610382565b610d7c8383610def565b6104076000848484610972565b60006001600160a01b03831615801590610de75750826001600160a01b0316846001600160a01b03161480610dc35750610dc38484610766565b80610de757506000828152600460205260409020546001600160a01b038481169116145b949350505050565b6001600160a01b038216610e1957604051633250574960e11b815260006004820152602401610382565b6000610e27838360006107da565b90506001600160a01b03811615610407576040516339e3563760e11b815260006004820152602401610382565b6001600160e01b03198116811461055057600080fd5b600060208284031215610e7c57600080fd5b8135610e8781610e54565b9392505050565b60005b83811015610ea9578181015183820152602001610e91565b50506000910152565b60008151808452610eca816020860160208601610e8e565b601f01601f19169290920160200192915050565b602081526000610e876020830184610eb2565b600060208284031215610f0357600080fd5b5035919050565b80356001600160a01b0381168114610f2157600080fd5b919050565b60008060408385031215610f3957600080fd5b610f4283610f0a565b946020939093013593505050565b600080600060608486031215610f6557600080fd5b610f6e84610f0a565b9250610f7c60208501610f0a565b9150604084013590509250925092565b600060208284031215610f9e57600080fd5b610e8782610f0a565b60008060408385031215610fba57600080fd5b610fc383610f0a565b915060208301358015158114610fd857600080fd5b809150509250929050565b634e487b7160e01b600052604160045260246000fd5b6000806000806080858703121561100f57600080fd5b61101885610f0a565b935061102660208601610f0a565b925060408501359150606085013567ffffffffffffffff8082111561104a57600080fd5b818701915087601f83011261105e57600080fd5b81358181111561107057611070610fe3565b604051601f8201601f19908116603f0116810190838211818310171561109857611098610fe3565b816040528281528a60208487010111156110b157600080fd5b82602086016020830137600060208483010152809550505050505092959194509250565b600080604083850312156110e857600080fd5b6110f183610f0a565b91506110ff60208401610f0a565b90509250929050565b600181811c9082168061111c57607f821691505b60208210810361113c57634e487b7160e01b600052602260045260246000fd5b50919050565b634e487b7160e01b600052602160045260246000fd5b634e487b7160e01b600052601160045260246000fd5b60006001820161118057611180611158565b5060010190565b683d913730b6b29d101160b91b815282516000906111ac816009850160208801610e8e565b6801134b6b0b3b2911d160bd1b60099184019182015283516111d5816012840160208801610e8e565b61227d60f01b60129290910191820152601401949350505050565b6040815260006112036040830185610eb2565b82810360208401526112158185610eb2565b95945050505050565b6001600160a01b038581168252841660208201526040810183905260806060820181905260009061125190830184610eb2565b9695505050505050565b60006020828403121561126d57600080fd5b8151610e8781610e54565b8082018082111561028c5761028c611158565b6000826112a857634e487b7160e01b600052601260045260246000fd5b500490565b808202811582820484141761028c5761028c61115856fe4142434445464748494a4b4c4d4e4f505152535455565758595a6162636465666768696a6b6c6d6e6f707172737475767778797a303132333435363738392b2fa26469706673582212209d1007fa42863a20b9168cd4d218305d37262abbcf4d84fd1d612b6ef6edc1ee64736f6c63430008170033","linkReferences":{}},"methodIdentifiers":{"approve(address,uint256)":"095ea7b3","balanceOf(address)":"70a08231","flipMood(uint256)":"c1a147a0","getApproved(uint256)":"081812fc","isApprovedForAll(address,address)":"e985e9c5","mintNft()":"c2229fea","name()":"06fdde03","ownerOf(uint256)":"6352211e","safeTransferFrom(address,address,uint256)":"42842e0e","safeTransferFrom(address,address,uint256,bytes)":"b88d4fde","setApprovalForAll(address,bool)":"a22cb465","supportsInterface(bytes4)":"01ffc9a7","symbol()":"95d89b41","tokenURI(uint256)":"c87b56dd","transferFrom(address,address,uint256)":"23b872dd"},"id":29}